:02000002D0002C
:1040000000400D00F4600D00000006000C000501EA
:084010000401BD0B00000000DB
:04401800EC5C0D004F
:10401C0009480A49884208B505D0094A824202D0AB
:10402C00121A01F06FFD0748074A0021121A01F01D
:10403C0077FD014808BD00BFB0E6032064600D00A9
:10404C0018E7032018E70320F0E7032070B5074EAC
:10405C00074C00F037FFA41BA4080025A54200D193
:10406C0070BD56F8043B98470135F7E730600D00FA
:10407C0054600D0000F016B808B500F0DDF9BDE88D
:10408C00084000F0E1BE00F0B1BC00F0AFBC00F0A5
:10409C00B5BC0078B0FA80F040097047012303707A
:1040AC007047000038B501F031FB4FF4165101F0A8
:1040BC0029FB1020FFF7E7FF044620B1042314224C
:1040CC00272100F0C9F9084D20462C6000F0D8FAE1
:1040DC00286800F0EBF9286800F026FA28680349F4
:1040EC00BDE8384000F022BE20E70320005D0D0043
:1040FC00F8B5164E164F174C01F008FB03681B69F8
:10410C009847002820DD3578F5B901F0FFFA0368EF
:10411C005B6998473B78C0B28BB15D2823780E4A17
:10412C0007D0D0540133DBB2272B00D927232370BF
:10413C00E2E7D55401233D7025703370DCE75B2832
:10414C00DAD101233B70D7E7F8BD00BF1FE703208E
:10415C001DE703201EE7032028E7032010B50C4CB5
:10416C00206800F0E1F920680022032100F0F0F94A
:10417C000849206800F0DAFD20680321022200F0D3
:10418C00E7F920680449BDE8104000F0CFBD00BF3E
:10419C0020E70320125D0D00205D0D002DE9F0419C
:1041AC00114D16460F46C2B20021286800F0D0F916
:1041BC003C2496FBF4F43B36D5F8008012DA2D2122
:1041CC00404600F0B7FD61420A22404600F0CBFDAC
:1041DC000649286800F0AAFD39682868BDE8F04156
:1041EC0000F0A4BD2146EFE720E703202E5D0D0073
:1041FC0038B5046805467CB16368013B63605BB904
:10420C00236820469B689847A368013BA3601BB9B1
:10421C0023682046DB689847284638BD2DE9F047CF
:10422C008EB03B493B4CDFF8F08002A800F0C5FC97
:10423C00374906A800F0C1FC354902A800F0EBFC98
:10424C004FF4FA6000F0C6FD2746FFF751FF2378C4
:10425C00002BFAD0304801F043FC0023421C0546E9
:10426C00237088F80030F0D0DFF8AC90DFF8A0A015
:10427C001E46FFF73DFF3B78002BFAD0494602A8BB
:10428C0000F0C9FC514602A83E7088F8006000F0AE
:10429C00D4FC04460028ECD1DFF87C90FFF728FF13
:1042AC003B78002BFAD0484601F01AFC431C06461A
:1042BC003C7088F80040F1D0032D0BDC02A90AA851
:1042CC0000F09EFC284632460AA9FFF767FF0AA8B1
:1042DC0000F028FC114C23680133142B23600ED101
:1042EC000F4B029A1B780F498DF800300AA83C231B
:1042FC0000F040FF0BA8FFF77BFF0023236006A80C
:10430C0000F010FC02A800F00DFC0EB0BDE8F08728
:10431C00335D0D001FE7032028E7032024E703206B
:10432C001CE70320345D0D0030B5194C19491A4DAA
:10433C0089B004A800F041FC206800F0F5F817499A
:10434C00206800F0F3FCFFF7D3FE294604A800F028
:10435C0062FC20680222002100F0FAF8049920681F
:10436C0000F0E4FC0E4B049A1B780E498DF80030DB
:10437C0002A83C2300F0FEFE03A8FFF739FF0A4A0F
:10438C00002304A82B70137000F0CCFB09B030BDD7
:10439C0020E70320335D0D0028E703203F5D0D006F
:1043AC001CE703204F5D0D001FE7032070B51E4D69
:1043BC00FFF79EFE2B7813B31C4C204601F090FBAC
:1043CC00012806D1002323702B70BDE87040FFF745
:1043DC0025BF204601F084FB022806D10023237060
:1043EC002B70BDE87040FFF79FBF204601F078FBB3
:1043FC00032805D100262670FFF7B0FE2E7070BD85
:10440C00204601F06DFB04284FF0000605D1084B47
:10441C002670186800F088F8F0E701F077F9054984
:10442C0000F097FC2670E9E71FE7032028E703203C
:10443C0020E703205D5D0D00FFF7B8BF014B0022A4
:10444C001A7070471CE70320704710B51021044602
:10445C0001F03FFB204610BD70B50025034E4560B2
:10446C000660017242738373C57370BD805D0D006D
:10447C0038B504460D4601F0FFFA217A01F0EAF94D
:10448C00022000F017F901F0F7FAE17B03682943E9
:10449C009B689847022000F00DF901F0EDFA01F04D
:1044AC00E1F9BDE83840022000F004B90823C373D9
:1044BC000021FFF7DDBF38B50C4641F0040105467D
:1044CC00FFF7D6FF012000F0F5F8284604F0FB01B9
:1044DC00FFF7CEFFBDE83840322000F0EBB838B51E
:1044EC0004460D46FFF7C4FF29462046BDE8384078
:1044FC00FFF7E1BF70B50D4621F00F0114461143D3
:10450C000646FFF7ECFF44EA05113046C9B2BDE898
:10451C007040FFF7E4BF08B50122FFF7EBFF002066
:10452C0008BD0022FFF7E6BF08B50121FFF7F9FF30
:10453C00BDE808404FF4FA6000F0BCB808B50221A1
:10454C00FFF7EFFFBDE808404FF4FA6000F0B2B897
:10455C007FB50E4B064615460C460FCB0DF1100CD5
:10456C000CE90F00327BAA423CBF02F1FF32D5B2FC
:10457C0004AB03EB8505304655F8101C214461F063
:10458C007F01C9B2FFF7CDFF04B070BD905D0D0087
:10459C0008B5817A41F00402827241F00C01FFF7F8
:1045AC00C0FF08BD10B5012A88BF417A027388BFCD
:1045BC0041F00801044688BF41722BB1012A02BFA9
:1045CC00437A43F004034372322000F003FCE17B96
:1045DC002046FFF74DFF4FF47A7000F0FBFB3021C3
:1045EC002046FFF77CFF41F2941000F063F8302175
:1045FC002046FFF774FF41F2941000F05BF8302175
:10460C002046FFF76CFF962000F054F8204620213E
:10461C00FFF765FF617A204641F02001FFF781FF2B
:10462C000423A3722046FFF7B3FF2046FFF77CFF5D
:10463C0002232046E3720621FFF773FF2046BDE8F4
:10464C001040FFF77BBF000010B5044601F014FAD0
:10465C000A4901F0F1F801F00FFA012101F0F0F82C
:10466C0001F00AFA01F0F0F80023A27B617B63727F
:10467C002046BDE81040FFF795BF00BFA0860100A3
:10468C00FFF7E2BF08B5024B1B689B68019308BD9E
:10469C006802030008B5024B1B68DB68019308BD78
:1046AC006802030008B5024B1B685B68019308BDE8
:1046BC001802030008B5024B1B68DB68019308BDA8
:1046CC001802030008B5024B1B685B69019308BD17
:1046DC001802030008B5024B1B685B6C019308BD04
:1046EC004802030008B5024B1B689B6C019308BD84
:1046FC004802030008B5024B1B685B69019308BDB7
:10470C006402030008B5024B1B681B68019308BDCB
:10471C003C02030008B5024B1B68DB68019308BD23
:10472C003C02030008B5024B1B681B69019308BDD2
:10473C003C02030008B5024B1B685B69019308BD82
:10474C003C02030008B5024B1B689B69019308BD32
:10475C003C02030008B5024B1B68DB69019308BDE2
:10476C003C02030008B5024B1B689B6A019308BD11
:10477C003C02030008B5024B1B68DB6A019308BDC1
:10478C003C02030008B5024B1B681B68019308BD73
:10479C002802030008B5024B1B689B68019308BDF7
:1047AC002802030008B5024B1B68DB68019308BDA7
:1047BC002802030008B5024B1B689B69019308BDD6
:1047CC002802030008B5024B1B68DB69019308BD86
:1047DC002802030008B5024B1B681B6A019308BD35
:1047EC002802030008B5024B1B685B6A019308BDE5
:1047FC002802030008B5024B1B689B6A019308BD95
:10480C002802030008B5024B1B68DB6A019308BD44
:10481C002802030008B5024B1B681B6B019308BDF3
:10482C002802030008B5024B1B681B6C019308BDE2
:10483C002802030008B5024B1B681B68019308BDD6
:10484C004C02030008B5024B1B681B69019308BDA1
:10485C004C02030008B5024B1B685B69019308BD51
:10486C004C02030008B5024B1B689B69019308BD01
:10487C004C02030008B5024B1B68DB69019308BDB1
:10488C004C02030008B5024B1B681B6A019308BD60
:10489C004C02030008B5024B1B685B68019308BD12
:1048AC002002030008B5024B1B685B69019308BD2D
:1048BC002002030008B5024B1B68DB6C019308BD9A
:1048CC002002030008B5024B1B685B6D019308BD09
:1048DC002002030008B5034B1B68D3F88830019302
:1048EC0008BD00002002030008B5034B1B68D3F879
:1048FC009430019308BD00002002030008B5024B60
:10490C001B685B68019308BD4002030008B5024BAD
:10491C001B689B68019308BD4002030008B5024B5D
:10492C001B68DB68019308BD4002030008B5024B0D
:10493C001B681B69019308BD4002030008B5024BBC
:10494C001B685B69019308BD4002030008B5024B6C
:10495C001B689B69019308BD4002030008B5024B1C
:10496C001B68DB69019308BD4002030008B5024BCC
:10497C001B681B6A019308BD4002030008B5024B7B
:10498C001B681B6B019308BD4002030008B5024B6A
:10499C001B685B6B019308BD4002030008B5024B1A
:1049AC001B681B6C019308BD4002030008B5024B49
:1049BC001B685B6C019308BD4002030008B5024BF9
:1049CC001B685B69019308BD4402030008B5024BE8
:1049DC001B681B6A019308BD4402030008B5024B17
:1049EC001B68DB6B019308BD4402030008B5024B46
:1049FC001B681B68019308BD1C02030008B5024B21
:104A0C001B685B68019308BD1C02030008B5024BD0
:104A1C001B689B68019308BD1C02030008B5024B80
:104A2C001B68DB6A019308BD1C02030008B5024B2E
:104A3C001B681B6B019308BD1C02030008B5024BDD
:104A4C001B685B6C019308BD1C02030000224068CC
:104A5C001146FFF78BBF002240681146FFF796BF47
:104A6C0040680022FFF78ABF4068002281F00101F4
:104A7C00FFF774BF002340681A461946FFF766BF5C
:104A8C00002340681A461946FFF758BF00224068B9
:104A9C001146FFF74BBF002240681146FFF736BFA7
:104AAC00406800220221FFF739BF002340681A46F4
:104ABC00FFF724BF024B03225A60024A1A60704768
:104ACC0050E70320A85D0D0010B50446006818B12E
:104ADC00FFF794FF0023236010BD10B50446FFF7C9
:104AEC00F3FF204610BD000010B5094B094C022203
:104AFC0000201A60084B2060A080A071A360FFF713
:104B0C00C9FE2046054A0649BDE8104000F0DCBF4E
:104B1C0064E7032058E703200000FFFF18E7032099
:104B2C00E74A0D0010B504460068FFF767FF204602
:104B3C0010BD10B50446006808B1FFF75FFF0023F5
:104B4C00C4E90133236010BD38B504460D46006836
:104B5C000131FFF75BFF10B1C4E90005012038BD3E
:104B6C0010B50368044623B143688B4201D301207E
:104B7C0010BD2046FFF7E8FF0028F9D0A368002BF2
:104B8C00F5D122681370F2E737B50D461146019244
:104B9C000446FFF7E5FF019A28B92046FFF7C9FF45
:104BAC00204603B030BDA2602946206800F0AAFF61
:104BBC002268A3680021D154F2E7002313B5C0E9A1
:104BCC00003304468360037341B10846019100F041
:104BDC00FAFF019902462046FFF7D6FF204602B0A5
:104BEC0010BD884210B5044605D00B682BB18A68FD
:104BFC001946FFF7C9FF204610BDFFF79AFFFAE7E9
:104C0C0010B500230446C0E9003383600373FFF73B
:104C1C00E8FF204610BD13B5044659B10846019172
:104C2C0000F0D1FF019902462046FFF7ADFF204668
:104C3C0002B010BDFFF77DFFF9E708B582683AB9FD
:104C4C0021B10878B0FA80F0400900E0012008BDDD
:104C5C00006809B90078F5E700F08EFFF2E710B5AF
:104C6C000446006808B1FFF73DFD204610BD10B5A5
:104C7C008368044613B1032201469847204610BDB1
:104C8C000B68036013B15A6801325A60704713B550
:104C9C000B460246D0E900016C4684E8030093E819
:104CAC00030082E8030094E8030083E8030002B0E9
:104CBC0010BD000010B5064C002320462360FFF702
:104CCC0009FD2046034A0449BDE8104000F0FCBE33
:104CDC0068E7032018E703206B4C0D00F8B5064677
:104CEC000D468F180024BD420CD0336815F8011BFB
:104CFC009B6830469847031E01DB1C44F3E7002CED
:104D0C0008BF1C462046F8BD13B50446084659B1E9
:104D1C00019100F058FF23680199DB680246204698
:104D2C0002B0BDE81040184702B010BD08B5FFF73F
:104D3C00EBFF08BD03689B68184738B50D21054685
:104D4C00FFF7F8FF0A2104462846FFF7F3FF20443B
:104D5C0038BD38B50546FFF7D7FF04462846FFF7A0
:104D6C00ECFF204438BD30B58BB000238DF82430D7
:104D7C00012A98BF0A2209AC0D46B1FBF2F101FBE6
:104D8C00125303F0FF03092B94BF30333733DBB2DC
:104D9C00AA4204F8013DEFD92146FFF7B5FF0BB04D
:104DAC0030BD002340681A461946FFF7C7BD000006
:104DBC00014B024A1A6070476CE70320DC5D0D0062
:104DCC00024B1A68024B1A60704700BFB0E6032012
:104DDC0070E703200021FFF765BD10B50446FFF70F
:104DEC0046FF204610BD00000348044A0449002336
:104DFC00836000F069BE00BF74E7032018E703204E
:104E0C00E74D0D00014B1860704700BFB4E603205E
:104E1C0008B50B4B43B100F0F3FB03681B699847D3
:104E2C00002801DDAFF30080064B43B100F06EFCAF
:104E3C0003681B699847002801DDAFF3008008BDAB
:104E4C00000000000000000008B5FFF7E1FFFFF7CD
:104E5C0039FC014B186008BDD4E703200248034A13
:104E6C000349121A00F04EBE00F4032004F4032090
:104E7C0060600D0007B5002300931A466FF07701B0
:104E8C00FFF732FD03B05DF804FB000007B5438863
:104E9C000A2B08D0502B0BD1094B1B684BB103B01C
:104EAC005DF804EB1847FFF7E5FF03B05DF804FB72
:104EBC00002300931A466FF07701FFF715FDF4E716
:104ECC0088E7032038B5124C1248134D0021FFF728
:104EDC00B5FD2368AB42114B0CBF012200221A70A6
:104EEC0002D0FFF7BBFF2560FFF7DCFB044600F0A8
:104EFC001FFE0B4B13B12046AFF300800021084876
:104F0C00FFF76CFDBDE8384006480021FFF7E2BC16
:104F1C0000F40320114E0D001E1C279A84E7032079
:104F2C0000000000994E0D0070470020704710B52E
:104F3C001021044600F0CDFD204610BD08B5FFF74A
:104F4C00F6FF08BD30B500224FF69C7402608480D9
:104F5C008D888C800C68858004600A6030BD10B52B
:104F6C0004460068FFF74AFD204610BD38B5C468FA
:104F7C00F4B12378022B03D104F10C00FFF7EFFFFF
:104F8C00656835B12846FFF772FE1021284600F0FF
:104F9C00A0FDA56835B12846FFF769FE102128460B
:104FAC0000F097FD20461421BDE8384000F091BD7B
:104FBC0038BD73B50E46044656F8043B00930D46B7
:104FCC0001A83146FFF75CFE019A009B62602360EA
:104FDC0001A8002301930093FFF70AF93046FFF76D
:104FEC0007F92846082100F074FD204602B070BD78
:104FFC00826810B50AB900F070FDBDE81040C368B6
:10500C00184708B5006800F11001FFF7F1FF08BD63
:10501C00826810B50AB900F060FDBDE81040C368A5
:10502C00184708B5006800F11001FFF7F1FF08BD43
:10503C0038B500230446036010200D46FFF723F813
:10504C0028B10123C0E90133024B0360C560206025
:10505C00204638BD045E0D0038B5002383608B6894
:10506C0004460D462BB102229847EB68E360AB680F
:10507C00A360204638BD0000F0B589B004686846CE
:10508C00FFF760FF4FF00203D4E84F2F002A03D143
:10509C00C4E8413F0029F7D125D104F10C0569463C
:1050AC002846FFF74FFFBFF35B8F0123637000208F
:1050BC0004F10803BFF35B8F53E8006F43E8000271
:1050CC00002AF9D1BFF35B8F6EB1FFF7F3FB78B118
:1050DC0029463046FFF78CFF3046FFF7C8FD1021FC
:1050EC00304600F0F6FC6846FFF739FF09B0F0BD1A
:1050FC00314602A8FFF7B0FFE068B4F9105008B1D0
:10510C0000F044FD06901020ADF81C50FEF7BBFFDC
:10511C000546E8B1002787601820FEF7B4FF044667
:10512C0088B10146876002A8FFF7B1FD049BA26815
:10513C00A360059B049206A9E268E36004F11000E9
:10514C000592FFF7FFFE084BEB60084B2C60AB6041
:10515C0006A8FFF704FF02A8FFF789FD00222946E5
:10516C000348FFF7AFFBB7E70F500D00A5520D003A
:10517C00A1570D002DE9F0478AB005469DF84890DF
:10518C000C4617469846FFF719FC07AE824638BB0B
:10519C004FF62E73059005A93046ADF81830FFF781
:1051AC00D1FE1420FEF76FFF044648B102230370B2
:1051BC000123C0E901AA437031460C30FFF7C2FE4F
:1051CC002846214640F8044BFFF732FF3046FFF7E4
:1051DC00C6FE05A8FFF7C3FE28460AB0BDE8F08757
:1051EC000C234FF0000A1420CDE908AA0793FEF710
:1051FC004AFF014628B1C0E901AA80F800A080F856
:10520C0001A004A80391FFF713FF224B0893082079
:10521C00FEF739FF824628B1039B40F8043B04A9F2
:10522C00FFF72EFD00965FFA89F342463946204679
:10523C00CDF824A0FFF7CAFBB8B9039B5B7803F049
:10524C00FF0293B94FF69C7305A903A80592ADF81C
:10525C001830FFF711FF05A8FFF781FE05A8099983
:10526C00FFF7A7FE06A8FEF7C3FF039B059304A94F
:10527C0006A8FFF705FD059B069A2B606A600023C4
:10528C0006A806930593FEF7B3FF04A8FEF7B0FF3C
:10529C00A2E700BF69530D00022AF8B5054607D0F6
:1052AC00032A18D0012A01D10B6803600020F8BD35
:1052BC0018200E68FEF7E7FE044650B13146FFF7A2
:1052CC00CBFE3069B6F9147008B100F05FFC2061B8
:1052DC00A7822C60EAE70468002CE7D004F11000E8
:1052EC00FFF73DFE2046FFF7C2FC1821204600F0D8
:1052FC00F0FBDBE738B5002383608B6804460D4672
:10530C002BB102229847EB68E360AB68A3602046A0
:10531C0038BD022A70B5044607D0032A12D0012AE0
:10532C0001D10B680360002070BD14200E68FEF7DD
:10533C00AAFE054620B13146FFF7DCFF337C2B7407
:10534C002560F0E70468002CEDD02046FFF78FFCB9
:10535C001421204600F0BDFBE5E70000F0B589B054
:10536C0004460D4601A81146FFF723FEA4B124B252
:10537C001DB1284600F00AFC054601A803A90395B7
:10538C00ADF81040FFF778FE03A8FFF7E8FD02A880
:10539C00FEF72EFF09B0F0BD019D0123D5E84F2F7C
:1053AC00002A03D1C5E8413F0029F7D1EFD12B7377
:1053BC00BFF35B8F6B702B1DBFF35B8F53E8006FDC
:1053CC0043E80042002AF9D1BFF35B8F002EDED0F8
:1053DC002046FFF76FFA074660B105F10C01304625
:1053EC00FFF716FE3046FFF742FC1021304600F066
:1053FC0070FBCCE7314603A8FFF77CFF2B7B8DF8C5
:10540C001C301020FEF73FFE0546D0B187601420FB
:10541C00FEF739FE044678B18760014603A8FFF712
:10542C0036FC059BA268A360069B0592E268E360CC
:10543C009DF81C3006922374064BEB60064B2C60D7
:10544C00AB6003A8FFF713FC002229460348FFF7C3
:10545C0039FAC7E72F500D001F530D00A1570D004F
:10546C00704710B51821044600F033FB204610BDE0
:10547C00F0B5037D062B8DB00E4600F104074FF0FE
:10548C00000412D000F1080515F8011D0A2230465F
:10549C00FFF769FCAF42044419D0002CF4D02E2144
:1054AC003046FFF747FC0444EEE72F236A463946A3
:1054BC000A208DF80040FFF71DF9684600F083FBC9
:1054CC0033680246DB6869463046984704462046F6
:1054DC000DB0F0BD10B5054B0446112240F8043B4D
:1054EC00002100F01DFB204610BD00BF205E0D000A
:1054FC000346074A10B543F8042B01F1100251F88A
:10550C00044B43F8044B9142F9D10A781A7010BD40
:10551C00205E0D0010B59DF8084044EA032343EAD1
:10552C00024242EA016104234160037510BD000090
:10553C0013B5054B0360CB7800938B784A780978C8
:10554C00FFF7E8FF02B010BD205E0D0041747047FC
:10555C00704708B50021007CFFF784F940EAE07041
:10556C0008BD08B50121007CFFF77CF940EAE0702A
:10557C0008BD08B5007CFFF76DF920EAE07008BDA6
:10558C0008B5007CFFF75EF920EAE07008BD13B5A2
:10559C000446007C0191FFF75DF90028019901DCBC
:1055AC00607C20B1207CFFF765F920EAE07002B046
:1055BC0010BD007CFFF766B910B51421044600F04D
:1055CC0088FA204610BD000010B54FF47A730446DB
:1055DC0008460021C4E90113044B23600123207405
:1055EC0063741146FFF726F9204610BD345E0D009A
:1055FC0010B514220446002100F092FA204610BD8A
:10560C0010B5104C88B003A8FFF7F2FF2178BFF358
:10561C005B8F11F0010111D120460191FEF739FD8C
:10562C00019958B103AA0848FFF7CEFF2046FEF7B0
:10563C0035FD064A0649044800F046FA024808B00F
:10564C0010BD00BF8CE7032090E7032018E7032070
:10565C005D550D0070474174704708B5007CFFF72D
:10566C0081F820EAE07008BD08B5007CFFF75AF815
:10567C0020EAE07008BD08B5007CFFF763F840EA4B
:10568C00E07008BD08B5007CFFF754F840EAE07004
:10569C0008BD007CFFF75EB837B5457C04462DB1DC
:1056AC00207C03B0BDE83040FFF734B8007C01919A
:1056BC00FFF758F800280199F2DC284603B030BDFA
:1056CC0010B51421044600F004FA204610BD000069
:1056DC0010B54FF0000C0446084611464FF47A7290
:1056EC00C4E901C2044A22600122207462741A4681
:1056FC00FFF708F8204610BD645E0D00007C002307
:10570C00FFF738B80022FFF7F9BF0000F7B51B4CC4
:10571C0026684EB98420FEF7B6FC054618B18422E3
:10572C00314600F0FDF92560154D2F684FB98420E6
:10573C00FEF7A9FC064618B18422394600F0F0F9B0
:10574C002E60104E3178BFF35B8F11F0010112D136
:10575C0030460191FEF79DFC019960B122682B68DF
:10576C000948FFF7B5FF3046FEF798FC074A084991
:10577C00054800F0A9F9044803B0F0BDA8E70320E0
:10578C00ACE70320A4E70320B0E7032018E70320CD
:10579C0061560D0010B5836804460BB900F09DF9F5
:1057AC00C3689847A3681BB103222146204698473B
:1057BC0020461021BDE8104000F08BB97047F8B5B9
:1057CC00064615460C468F18BC4206D0336814F8B2
:1057DC00011B9B6830469847F6E72846F8BD007CCD
:1057EC000022FEF7F7BF007C0021FEF7FBBF007C18
:1057FC000021FEF7FFBF007C0021FFF703B8007CFF
:10580C000021FFF707B810B51421044600F061F928
:10581C00204610BD10B54FF47A730446084600219B
:10582C00C4E90113034B236020741146FEF7FAFF01
:10583C00204610BD945E0D00007C0022FEF7A2BF36
:10584C00007C0022FEF7A6BF0023007C1A461946F6
:10585C00FEF7A8BF007C0022FEF7ACBF007C002244
:10586C00FEF7B0BF0121FFF7F9BF002240681146D7
:10587C00FFF75CB8002240681146FFF777B80022AA
:10588C0040681146FFF782B840680022FFF776B8EF
:10589C004068002281F00101FFF760B800234068E6
:1058AC001A461946FFF752B8002240681146FFF716
:1058BC002DB8406800220221FFF730B80023406861
:1058CC001A46FFF71BB80000024B04225A60024A2A
:1058DC001A607047C4E70320BC5E0D0000234068CB
:1058EC001A46FFF70BB8406800220221FFF716B8E2
:1058FC00002240681146FFF709B8002240681146A3
:10590C00FFF714B8002340681A461946FFF716B87B
:10591C00002340681A461946FFF718B84068002162
:10592C00FFF73CB840680021FFF740B84068002200
:10593C0081F00101FFF712B840680022FFF71EB892
:10594C00002240681146FFF721B80022406811463A
:10595C00FFF70CB82DE9F043002495B016460D4620
:10596C000746FFF7B7FD214618220EA8009400F059
:10597C00D7F84023CDE90C3421466B460CAA3046AF
:10598C00FEF788FE044600284CD1024601216868C7
:10599C00FEF7CCFF0221804622466868FEF7C6FF60
:1059AC00009E81462146002E3CD000293AD17368D6
:1059BC00022B03D00A2B11D0F669F4E7B8F1000FD3
:1059CC000AD0716906A8043107ADFFF7B1FD0FCD00
:1059DC003C1D0FC42B6823704146EDE7B9F1000F55
:1059EC0001D14946E8E77469102201A800F098F843
:1059FC0006238DF8143001AD04F10803183418682F
:105A0C0059682A4603C20833A3421546F7D101A9A7
:105A1C0006A807ADFFF76CFD0FCD3C1D0FC42B681E
:105A2C002370DEE70098FEF72DFE384615B0BDE872
:105A3C00F0830000024B034A1A6000225A60704740
:105A4C00CCE70320F85E0D0038B5002320254380F9
:105A5C00142304460380856005610649284600F03E
:105A6C003AF804496060284600F035F8E0602046BA
:105A7C0038BD00BF2C5F0D0030B50F4D2978BFF33A
:105A8C005B8F11F0010487B013D12846FEF701FBA0
:105A9C0078B101A8FFF7D8FF01AA21460748FFF704
:105AAC00B9FE2846FEF7FAFA054A0649034800F003
:105ABC000BF8024807B030BDD8E70320DCE7032021
:105ACC0018E70320C9570D000B460146184600F095
:105ADC000BB8FEF7DCBAFEF7D8BA08B5FEF79EFF96
:105AEC000A22002100F0F2B810B5054C13462CB177
:105AFC000A4601460220AFF3008010BD2046FCE7A9
:105B0C00000000000A44914200F1FF3300D17047BD
:105B1C0010B511F8014B03F8014F9142F9D110BDAA
:105B2C0002440346934200D1704703F8011BF9E786
:105B3C0038B50D4B1D68AB6B04467BB91820FEF7CE
:105B4C0055FF0A4A0A4BA863C0E90023094B83603E
:105B5C000B23838101220023C0E90423AB6B0022B9
:105B6C001C615A6138BD00BFB4E603200E33CDABC7
:105B7C0034126DE6ECDE050010F8012B11F8013B38
:105B8C00012A28BF9A42F7D0D01A7047024B01461F
:105B9C00186800F003B800BFB4E6032037B504461C
:105BAC0008460D4600F00FF8421C114620460192A3
:105BBC00FEF73CFF044618B1019A2946FFF7A2FFF5
:105BCC00204603B030BD034613F8012B002AFBD14D
:105BDC00181A0138704700002DE9F0473A4E8646F6
:105BEC008C4660461CF8014BA55D15F00805F8D1F4
:105BFC002D2C33D19CF800404FF0010800F1020C21
:105C0C00002B5CD0102B0CD1302C0AD19CF800004E
:105C1C0000F0DF0058284DD19CF8014010230CF106
:105C2C00020C08F10047013F0026B7FBF3F93046A0
:105C3C0003FB197AA4F13005092D18D82C46A34280
:105C4C0024DD751C07D081451DD301D1A2451ADB7B
:105C5C0000FB034001261CF8014BEBE72B2C08BF83
:105C6C009CF80040A84608BF00F1020CC8E7A4F15C
:105C7C004105192D01D8373CE1E7A4F16105192D37
:105C8C0004D8573CDBE74FF0FF36E4E7731C06D132
:105C9C002223CEF80030384642B9BDE8F087B8F17F
:105CAC00000F00D04042002AF7D00EB10CF1FF31AA
:105CBC001160F2E73024002BB3D10823B1E7302C6C
:105CCC00A4D00A23ADE700BF2E5F0D0013460A4691
:105CDC00014602480068FFF77FBF00BFB4E603200F
:105CEC001D400D0059400D0081400D0085400D00F8
:105CFC000000000053637265656E2054696D657217
:105D0C0020496E6974004177616974696E6720443B
:105D1C00617461004F72206E6F2044657669636513
:105D2C007300206D696E200044657620696E2055E5
:105D3C00736500446576696365204F766572746996
:105D4C006D65004C696D69742052656163686564AA
:105D5C00004572726F7220696E2053657269616CB6
:105D6C002053656C656374696F6E00000000000061
:105D7C000000000055440D0057440D0023450D0054
:105D8C00E94C0D0000000000400000001400000071
:105D9C00540000000000000000000000B74A0D0095
:105DAC00AD4A0D00A34A0D00994A0D008D4A0D0015
:105DBC00814A0D0029590D0031590D00754A0D000D
:105DCC006D4A0D00634A0D00594A0D0061590D00D2
:105DDC006170700025592D256D2D25645425483A88
:105DEC00254D3A2553257A0061736374696D6500FE
:105DFC000000000000000000354F0D003B4F0D006F
:105E0C00794F0D00494F0D00374F0D000000000079
:105E1C00000000007D540D006D540D006F540D00FA
:105E2C0000000000000000005D550D00C5550D0080
:105E3C009B550D00E94C0D008D550D005F550D0067
:105E4C006F550D00BF550D007F550D0059550D00B8
:105E5C00000000000000000061560D00CD560D0042
:105E6C00A5560D00E94C0D0075560D0091560D0010
:105E7C0083560D009F560D0063560D0067560D009E
:105E8C000000000000000000C9570D0013580D0061
:105E9C00EB570D00CB570D00F3570D00FB570D00C2
:105EAC0003580D000B580D0000000000000000000E
:105EBC00C9580D00BF580D00B5580D0077580D008E
:105ECC00AF4D0D00A9580D0029590D0031590D0089
:105EDC009D580D0095580D008B580D0081580D00E4
:105EEC0061590D000000000000000000E9580D0091
:105EFC00F3580D00FD580D0007590D0011590D00F8
:105F0C001D590D0029590D0031590D0039590D003D
:105F1C0045590D004D590D0057590D0061590D0093
:105F2C00000020202020202020202028282828287D
:105F3C002020202020202020202020202020202055
:105F4C0020208810101010101010101010101010AD
:105F5C0010100404040404040404040410101010AD
:105F6C001010104141414141410101010101010168
:105F7C0001010101010101010101010101101010D8
:105F8C00101010424242424242020202020202023B
:105F9C0002020202020202020202020202101010AB
:105FAC0010200000000000000000000000000000B5
:105FBC0000000000000000000000000000000000D5
:105FCC0000000000000000000000000000000000C5
:105FDC0000000000000000000000000000000000B5
:105FEC0000000000000000000000000000000000A5
:105FFC000000000000000000000000000000000095
:10600C000000000000000000000000000000000084
:10601C000000000000000000000000000000000074
:10602C000000000049440D00C14A0D00F54A0D0066
:10603C00C14C0D00BD4D0D00CD4D0D00F54D0D00AD
:10604C00D5580D00415A0D00000000000000000062
:04605C000000000040
:04606000000000003C
:10606400F45D0D00B8E6032000000000000000000D
:10607400000000000000000000000000000000001C
:10608400000000000000000000000000000000000C
:1060940000000000000000000000000000000000FC
:1060A40000000000000000000000000000000000EC
:1060B40000000000000000000000000000000000DC
:0860C4000000000000000000D4
:1060CC00FFFFFFFF00000102030405060708090A91
:1060DC000B0C0D0E0F101112131415161718191A8C
:0860EC001B1C1D1E1F202800D3
:0460F4007856341294
:04000003D000401CCD
:00000001FF
